{
  "transactions": [
    {
      "hash": "0x2702c6ce6970a49074fc7d0f211580e07c319d1a346fd9928827204f46d16150",
      "transactionType": "CALL",
      "contractName": null,
      "contractAddress": "0xe7f1725e7734ce288f8367e1bb143e90bb3f0512",
      "function": "claim(address,uint256,bytes32[],uint8,bytes32,bytes32)",
      "arguments": [
        "0xf39Fd6e51aad88F6F4ce6aB8827279cffFb92266",
        "25000000000000000000",
        "[0xd1445c931158119b00449ffcac3c947d028c0c359c34a6646d95962b3b55c6ad, 0xe5ebd1e1b5a5478a944ecab36a9a954ac3b6b8216875f6524caa7a1d87096576]",
        "28",
        "0x4d783a71faa0f097a9b6a44e1fdd7a1532f48cdcf584b4a7df8632ca5842b7f7",
        "0x482226c83b0fa8e6e8dfe9ac1571b0a3b2d5783f003cee332f00c9309cb39cf3"
      ],
      "transaction": {
        "from": "0x70997970c51812dc3a010c7d01b50e0d17dc79c8",
        "to": "0xe7f1725e7734ce288f8367e1bb143e90bb3f0512",
        "gas": "0x1e53a",
        "value": "0x0",
        "input": "0x4497a169000000000000000000000000f39fd6e51aad88f6f4ce6ab8827279cfffb922660000000000000000000000000000000000000000000000015af1d78b58c4000000000000000000000000000000000000000000000000000000000000000000c0000000000000000000000000000000000000000000000000000000000000001c4d783a71faa0f097a9b6a44e1fdd7a1532f48cdcf584b4a7df8632ca5842b7f7482226c83b0fa8e6e8dfe9ac1571b0a3b2d5783f003cee332f00c9309cb39cf30000000000000000000000000000000000000000000000000000000000000002d1445c931158119b00449ffcac3c947d028c0c359c34a6646d95962b3b55c6ade5ebd1e1b5a5478a944ecab36a9a954ac3b6b8216875f6524caa7a1d87096576",
        "nonce": "0x0",
        "chainId": "0x7a69"
      },
      "additionalContracts": [],
      "isFixedGasLimit": false
    }
  ],
  "receipts": [
    {
      "status": "0x1",
      "cumulativeGasUsed": "0x15f4d",
      "logs": [
        {
          "address": "0xe7f1725e7734ce288f8367e1bb143e90bb3f0512",
          "topics": [
            "0x5d425a3a6a3d5a60fbf147dc6659ce3dfeb701fc44fe90058c32783b8807c574"
          ],
          "data": "0x000000000000000000000000f39fd6e51aad88f6f4ce6ab8827279cfffb922660000000000000000000000000000000000000000000000015af1d78b58c40000",
          "blockHash": "0xec576ccb38dc191c665203f6378362212051b9b804f5c9603b5061ddf21d4060",
          "blockNumber": "0x4",
          "blockTimestamp": "0x66ae1fc5",
          "transactionHash": "0x2702c6ce6970a49074fc7d0f211580e07c319d1a346fd9928827204f46d16150",
          "transactionIndex": "0x0",
          "logIndex": "0x0",
          "removed": false
        },
        {
          "address": "0x5fbdb2315678afecb367f032d93f642f64180aa3",
          "topics": [
            "0xddf252ad1be2c89b69c2b068fc378daa952ba7f163c4a11628f55a4df523b3ef",
            "0x000000000000000000000000e7f1725e7734ce288f8367e1bb143e90bb3f0512",
            "0x000000000000000000000000f39fd6e51aad88f6f4ce6ab8827279cfffb92266"
          ],
          "data": "0x0000000000000000000000000000000000000000000000015af1d78b58c40000",
          "blockHash": "0xec576ccb38dc191c665203f6378362212051b9b804f5c9603b5061ddf21d4060",
          "blockNumber": "0x4",
          "blockTimestamp": "0x66ae1fc5",
          "transactionHash": "0x2702c6ce6970a49074fc7d0f211580e07c319d1a346fd9928827204f46d16150",
          "transactionIndex": "0x0",
          "logIndex": "0x1",
          "removed": false
        }
      ],
      "logsBloom": "0x00000000000000000400000000000000000000000000000000000000000000010000000000000000000000000000000010000000000000000000000000000000000000000000000000000008000000000000000000000000000000008000000000000040000000000000000100000000000000000000000000000014000000000000000000000000000000000000000000000000000000000000000200000000000000000000000000000002000000000000000000000000000000000000000000000042200000200000000000001000000000002000000000000000000000000000000000000000000000000000000000000000000000800000000000000000",
      "type": "0x2",
      "transactionHash": "0x2702c6ce6970a49074fc7d0f211580e07c319d1a346fd9928827204f46d16150",
      "transactionIndex": "0x0",
      "blockHash": "0xec576ccb38dc191c665203f6378362212051b9b804f5c9603b5061ddf21d4060",
      "blockNumber": "0x4",
      "gasUsed": "0x15f4d",
      "effectiveGasPrice": "0x28844cb1",
      "blobGasPrice": "0x1",
      "from": "0x70997970c51812dc3a010c7d01b50e0d17dc79c8",
      "to": "0xe7f1725e7734ce288f8367e1bb143e90bb3f0512",
      "contractAddress": null,
      "root": "0x00ba64ea4929e9ffe1eedc050a9767aff31f1d3ee2f69462dd5603dc20b7ca25"
    }
  ],
  "libraries": [],
  "pending": [],
  "returns": {},
  "timestamp": 1722687429,
  "chain": 31337,
  "commit": "94ae25b"
}