{
  "transactions": [
    {
      "hash": "0xff845d4a655760a409eed8ff4381d95e1003efa47626388d2788365424ec4a95",
      "transactionType": "CALL",
      "contractName": null,
      "contractAddress": "0x779877a7b0d9e8603169ddbd7836e478b4624789",
      "function": "transferAndCall(address,uint256,bytes)",
      "arguments": [
        "0x9DdfaCa8183c41ad55329BdeeD9F6A8d53168B1B",
        "3000000000000000000",
        "0xb99c10aa5a31e3ffddd9d551d52597ee810a866999207b393115d547157c7ccc"
      ],
      "transaction": {
        "from": "0xfe90f5d265c2b21824268eb51e1cffb212edc9d9",
        "to": "0x779877a7b0d9e8603169ddbd7836e478b4624789",
        "gas": "0x14cbb",
        "value": "0x0",
        "input": "0x4000aea00000000000000000000000009ddfaca8183c41ad55329bdeed9f6a8d53168b1b00000000000000000000000000000000000000000000000029a2241af62c000000000000000000000000000000000000000000000000000000000000000000600000000000000000000000000000000000000000000000000000000000000020b99c10aa5a31e3ffddd9d551d52597ee810a866999207b393115d547157c7ccc",
        "nonce": "0x6",
        "chainId": "0xaa36a7"
      },
      "additionalContracts": [],
      "isFixedGasLimit": false
    }
  ],
  "receipts": [
    {
      "status": "0x1",
      "cumulativeGasUsed": "0x1013f65",
      "logs": [
        {
          "address": "0x779877a7b0d9e8603169ddbd7836e478b4624789",
          "topics": [
            "0xddf252ad1be2c89b69c2b068fc378daa952ba7f163c4a11628f55a4df523b3ef",
            "0x000000000000000000000000fe90f5d265c2b21824268eb51e1cffb212edc9d9",
            "0x0000000000000000000000009ddfaca8183c41ad55329bdeed9f6a8d53168b1b"
          ],
          "data": "0x00000000000000000000000000000000000000000000000029a2241af62c0000",
          "blockHash": "0x1f0e8be4d889e52f17053e9f3c00b53c199d906cea19d6888e747eb3601a131a",
          "blockNumber": "0x613ef5",
          "transactionHash": "0xff845d4a655760a409eed8ff4381d95e1003efa47626388d2788365424ec4a95",
          "transactionIndex": "0x82",
          "logIndex": "0xec",
          "removed": false
        },
        {
          "address": "0x779877a7b0d9e8603169ddbd7836e478b4624789",
          "topics": [
            "0xe19260aff97b920c7df27010903aeb9c8d2be5d310a2c67824cf3f15396e4c16",
            "0x000000000000000000000000fe90f5d265c2b21824268eb51e1cffb212edc9d9",
            "0x0000000000000000000000009ddfaca8183c41ad55329bdeed9f6a8d53168b1b"
          ],
          "data": "0x00000000000000000000000000000000000000000000000029a2241af62c000000000000000000000000000000000000000000000000000000000000000000400000000000000000000000000000000000000000000000000000000000000020b99c10aa5a31e3ffddd9d551d52597ee810a866999207b393115d547157c7ccc",
          "blockHash": "0x1f0e8be4d889e52f17053e9f3c00b53c199d906cea19d6888e747eb3601a131a",
          "blockNumber": "0x613ef5",
          "transactionHash": "0xff845d4a655760a409eed8ff4381d95e1003efa47626388d2788365424ec4a95",
          "transactionIndex": "0x82",
          "logIndex": "0xed",
          "removed": false
        },
        {
          "address": "0x9ddfaca8183c41ad55329bdeed9f6a8d53168b1b",
          "topics": [
            "0x1ced9348ff549fceab2ac57cd3a9de38edaaab274b725ee82c23e8fc8c4eec7a",
            "0xb99c10aa5a31e3ffddd9d551d52597ee810a866999207b393115d547157c7ccc"
          ],
          "data": "0x0000000000000000000000000000000000000000000000004563918244f400000000000000000000000000000000000000000000000000006f05b59d3b200000",
          "blockHash": "0x1f0e8be4d889e52f17053e9f3c00b53c199d906cea19d6888e747eb3601a131a",
          "blockNumber": "0x613ef5",
          "transactionHash": "0xff845d4a655760a409eed8ff4381d95e1003efa47626388d2788365424ec4a95",
          "transactionIndex": "0x82",
          "logIndex": "0xee",
          "removed": false
        }
      ],
      "logsBloom": "0x00000004000000000000000000000000000000000020000000000000020000000000000000000000000000000000000000000000000000000000000000000001000000000400000000000008000000002000000000000000000020000020000008000000000000000000000000000000000000000000000000000010000040000000000000000000000000010000800000000020000200000000000000000000000000000000000000000000010000000000000000000000000004000000000000000002000000000000000000000000000000000010000100000000000000000010000000000000800000000010000000000000000000000000000000000000",
      "type": "0x2",
      "transactionHash": "0xff845d4a655760a409eed8ff4381d95e1003efa47626388d2788365424ec4a95",
      "transactionIndex": "0x82",
      "blockHash": "0x1f0e8be4d889e52f17053e9f3c00b53c199d906cea19d6888e747eb3601a131a",
      "blockNumber": "0x613ef5",
      "gasUsed": "0xf0e5",
      "effectiveGasPrice": "0x754ee5143",
      "from": "0xfe90f5d265c2b21824268eb51e1cffb212edc9d9",
      "to": "0x779877a7b0d9e8603169ddbd7836e478b4624789",
      "contractAddress": null
    }
  ],
  "libraries": [],
  "pending": [],
  "returns": {},
  "timestamp": 1721927033,
  "chain": 11155111,
  "commit": "80056f4"
}